{
  "_format": "hh3-artifact-1",
  "contractName": "SimpleKYCWithUpdates",
  "sourceName": "contracts/SimpleKYCWithUpdates.sol",
  "abi": [
    {
      "inputs": [
        {
          "internalType": "address",
          "name": "_usdtAddress",
          "type": "address"
        },
        {
          "internalType": "uint128",
          "name": "_kycFee",
          "type": "uint128"
        }
      ],
      "stateMutability": "nonpayable",
      "type": "constructor"
    },
    {
      "inputs": [],
      "name": "EnforcedPause",
      "type": "error"
    },
    {
      "inputs": [],
      "name": "ExpectedPause",
      "type": "error"
    },
    {
      "inputs": [
        {
          "internalType": "address",
          "name": "owner",
          "type": "address"
        }
      ],
      "name": "OwnableInvalidOwner",
      "type": "error"
    },
    {
      "inputs": [
        {
          "internalType": "address",
          "name": "account",
          "type": "address"
        }
      ],
      "name": "OwnableUnauthorizedAccount",
      "type": "error"
    },
    {
      "inputs": [],
      "name": "ReentrancyGuardReentrantCall",
      "type": "error"
    },
    {
      "inputs": [
        {
          "internalType": "address",
          "name": "token",
          "type": "address"
        }
      ],
      "name": "SafeERC20FailedOperation",
      "type": "error"
    },
    {
      "anonymous": false,
      "inputs": [
        {
          "indexed": true,
          "internalType": "address",
          "name": "user",
          "type": "address"
        },
        {
          "indexed": true,
          "internalType": "uint256",
          "name": "submissionId",
          "type": "uint256"
        },
        {
          "indexed": false,
          "internalType": "bytes32",
          "name": "newDataHash",
          "type": "bytes32"
        },
        {
          "indexed": false,
          "internalType": "string",
          "name": "newMetadataUrl",
          "type": "string"
        },
        {
          "indexed": false,
          "internalType": "uint16",
          "name": "updateNumber",
          "type": "uint16"
        },
        {
          "indexed": false,
          "internalType": "uint256",
          "name": "timestamp",
          "type": "uint256"
        }
      ],
      "name": "DocumentsUpdated",
      "type": "event"
    },
    {
      "anonymous": false,
      "inputs": [
        {
          "indexed": false,
          "internalType": "uint256",
          "name": "oldFee",
          "type": "uint256"
        },
        {
          "indexed": false,
          "internalType": "uint256",
          "name": "newFee",
          "type": "uint256"
        }
      ],
      "name": "FeeUpdated",
      "type": "event"
    },
    {
      "anonymous": false,
      "inputs": [
        {
          "indexed": true,
          "internalType": "address",
          "name": "owner",
          "type": "address"
        },
        {
          "indexed": false,
          "internalType": "uint256",
          "name": "amount",
          "type": "uint256"
        },
        {
          "indexed": false,
          "internalType": "uint256",
          "name": "timestamp",
          "type": "uint256"
        }
      ],
      "name": "FundsWithdrawn",
      "type": "event"
    },
    {
      "anonymous": false,
      "inputs": [
        {
          "indexed": true,
          "internalType": "address",
          "name": "user",
          "type": "address"
        },
        {
          "indexed": true,
          "internalType": "uint256",
          "name": "submissionId",
          "type": "uint256"
        },
        {
          "indexed": false,
          "internalType": "bytes32",
          "name": "combinedDataHash",
          "type": "bytes32"
        },
        {
          "indexed": false,
          "internalType": "string",
          "name": "metadataUrl",
          "type": "string"
        },
        {
          "indexed": false,
          "internalType": "uint256",
          "name": "feePaid",
          "type": "uint256"
        },
        {
          "indexed": false,
          "internalType": "uint256",
          "name": "timestamp",
          "type": "uint256"
        },
        {
          "indexed": false,
          "internalType": "uint16",
          "name": "updateNumber",
          "type": "uint16"
        }
      ],
      "name": "KYCSubmitted",
      "type": "event"
    },
    {
      "anonymous": false,
      "inputs": [
        {
          "indexed": true,
          "internalType": "address",
          "name": "previousOwner",
          "type": "address"
        },
        {
          "indexed": true,
          "internalType": "address",
          "name": "newOwner",
          "type": "address"
        }
      ],
      "name": "OwnershipTransferred",
      "type": "event"
    },
    {
      "anonymous": false,
      "inputs": [
        {
          "indexed": false,
          "internalType": "address",
          "name": "account",
          "type": "address"
        }
      ],
      "name": "Paused",
      "type": "event"
    },
    {
      "anonymous": false,
      "inputs": [
        {
          "indexed": false,
          "internalType": "address",
          "name": "account",
          "type": "address"
        }
      ],
      "name": "Unpaused",
      "type": "event"
    },
    {
      "inputs": [],
      "name": "COMPANY_WALLET",
      "outputs": [
        {
          "internalType": "address",
          "name": "",
          "type": "address"
        }
      ],
      "stateMutability": "view",
      "type": "function"
    },
    {
      "inputs": [],
      "name": "MAX_FEE",
      "outputs": [
        {
          "internalType": "uint256",
          "name": "",
          "type": "uint256"
        }
      ],
      "stateMutability": "view",
      "type": "function"
    },
    {
      "inputs": [],
      "name": "MIN_FEE",
      "outputs": [
        {
          "internalType": "uint256",
          "name": "",
          "type": "uint256"
        }
      ],
      "stateMutability": "view",
      "type": "function"
    },
    {
      "inputs": [],
      "name": "getContractBalance",
      "outputs": [
        {
          "internalType": "uint256",
          "name": "",
          "type": "uint256"
        }
      ],
      "stateMutability": "view",
      "type": "function"
    },
    {
      "inputs": [],
      "name": "getCurrentFee",
      "outputs": [
        {
          "internalType": "uint128",
          "name": "",
          "type": "uint128"
        }
      ],
      "stateMutability": "view",
      "type": "function"
    },
    {
      "inputs": [
        {
          "internalType": "address",
          "name": "_user",
          "type": "address"
        }
      ],
      "name": "getCurrentMetadataUrl",
      "outputs": [
        {
          "internalType": "string",
          "name": "",
          "type": "string"
        }
      ],
      "stateMutability": "view",
      "type": "function"
    },
    {
      "inputs": [
        {
          "internalType": "address",
          "name": "_user",
          "type": "address"
        }
      ],
      "name": "getKYCRecord",
      "outputs": [
        {
          "internalType": "uint128",
          "name": "submissionId",
          "type": "uint128"
        },
        {
          "internalType": "uint40",
          "name": "initialSubmitTime",
          "type": "uint40"
        },
        {
          "internalType": "uint40",
          "name": "lastUpdateTime",
          "type": "uint40"
        },
        {
          "internalType": "uint56",
          "name": "paidFee",
          "type": "uint56"
        },
        {
          "internalType": "address",
          "name": "submitter",
          "type": "address"
        },
        {
          "internalType": "bytes32",
          "name": "combinedDataHash",
          "type": "bytes32"
        },
        {
          "internalType": "string",
          "name": "metadataUrl",
          "type": "string"
        },
        {
          "internalType": "uint16",
          "name": "updateCount",
          "type": "uint16"
        }
      ],
      "stateMutability": "view",
      "type": "function"
    },
    {
      "inputs": [],
      "name": "getStats",
      "outputs": [
        {
          "internalType": "uint128",
          "name": "submissions",
          "type": "uint128"
        },
        {
          "internalType": "uint128",
          "name": "currentFee",
          "type": "uint128"
        },
        {
          "internalType": "uint256",
          "name": "balance",
          "type": "uint256"
        }
      ],
      "stateMutability": "view",
      "type": "function"
    },
    {
      "inputs": [
        {
          "internalType": "address",
          "name": "_user",
          "type": "address"
        }
      ],
      "name": "getUpdateCount",
      "outputs": [
        {
          "internalType": "uint16",
          "name": "",
          "type": "uint16"
        }
      ],
      "stateMutability": "view",
      "type": "function"
    },
    {
      "inputs": [
        {
          "internalType": "uint128",
          "name": "_submissionId",
          "type": "uint128"
        }
      ],
      "name": "getUserBySubmissionId",
      "outputs": [
        {
          "internalType": "address",
          "name": "",
          "type": "address"
        }
      ],
      "stateMutability": "view",
      "type": "function"
    },
    {
      "inputs": [
        {
          "internalType": "address",
          "name": "_user",
          "type": "address"
        }
      ],
      "name": "hasSubmitted",
      "outputs": [
        {
          "internalType": "bool",
          "name": "",
          "type": "bool"
        }
      ],
      "stateMutability": "view",
      "type": "function"
    },
    {
      "inputs": [],
      "name": "kycFee",
      "outputs": [
        {
          "internalType": "uint128",
          "name": "",
          "type": "uint128"
        }
      ],
      "stateMutability": "view",
      "type": "function"
    },
    {
      "inputs": [
        {
          "internalType": "address",
          "name": "",
          "type": "address"
        }
      ],
      "name": "kycRecords",
      "outputs": [
        {
          "internalType": "uint128",
          "name": "submissionId",
          "type": "uint128"
        },
        {
          "internalType": "uint40",
          "name": "initialSubmitTime",
          "type": "uint40"
        },
        {
          "internalType": "uint40",
          "name": "lastUpdateTime",
          "type": "uint40"
        },
        {
          "internalType": "uint56",
          "name": "paidFee",
          "type": "uint56"
        },
        {
          "internalType": "address",
          "name": "submitter",
          "type": "address"
        },
        {
          "internalType": "bytes32",
          "name": "combinedDataHash",
          "type": "bytes32"
        },
        {
          "internalType": "string",
          "name": "metadataUrl",
          "type": "string"
        },
        {
          "internalType": "uint16",
          "name": "updateCount",
          "type": "uint16"
        }
      ],
      "stateMutability": "view",
      "type": "function"
    },
    {
      "inputs": [],
      "name": "owner",
      "outputs": [
        {
          "internalType": "address",
          "name": "",
          "type": "address"
        }
      ],
      "stateMutability": "view",
      "type": "function"
    },
    {
      "inputs": [],
      "name": "pause",
      "outputs": [],
      "stateMutability": "nonpayable",
      "type": "function"
    },
    {
      "inputs": [],
      "name": "paused",
      "outputs": [
        {
          "internalType": "bool",
          "name": "",
          "type": "bool"
        }
      ],
      "stateMutability": "view",
      "type": "function"
    },
    {
      "inputs": [],
      "name": "renounceOwnership",
      "outputs": [],
      "stateMutability": "nonpayable",
      "type": "function"
    },
    {
      "inputs": [
        {
          "internalType": "uint128",
          "name": "_newFee",
          "type": "uint128"
        }
      ],
      "name": "setFee",
      "outputs": [],
      "stateMutability": "nonpayable",
      "type": "function"
    },
    {
      "inputs": [
        {
          "internalType": "uint256",
          "name": "",
          "type": "uint256"
        }
      ],
      "name": "submissionIdToUser",
      "outputs": [
        {
          "internalType": "address",
          "name": "",
          "type": "address"
        }
      ],
      "stateMutability": "view",
      "type": "function"
    },
    {
      "inputs": [
        {
          "internalType": "bytes32",
          "name": "_combinedDataHash",
          "type": "bytes32"
        },
        {
          "internalType": "string",
          "name": "_metadataUrl",
          "type": "string"
        }
      ],
      "name": "submitKYC",
      "outputs": [],
      "stateMutability": "nonpayable",
      "type": "function"
    },
    {
      "inputs": [],
      "name": "totalSubmissions",
      "outputs": [
        {
          "internalType": "uint128",
          "name": "",
          "type": "uint128"
        }
      ],
      "stateMutability": "view",
      "type": "function"
    },
    {
      "inputs": [
        {
          "internalType": "address",
          "name": "newOwner",
          "type": "address"
        }
      ],
      "name": "transferOwnership",
      "outputs": [],
      "stateMutability": "nonpayable",
      "type": "function"
    },
    {
      "inputs": [],
      "name": "unpause",
      "outputs": [],
      "stateMutability": "nonpayable",
      "type": "function"
    },
    {
      "inputs": [
        {
          "internalType": "bytes32",
          "name": "_combinedDataHash",
          "type": "bytes32"
        },
        {
          "internalType": "string",
          "name": "_metadataUrl",
          "type": "string"
        }
      ],
      "name": "updateDocuments",
      "outputs": [],
      "stateMutability": "nonpayable",
      "type": "function"
    },
    {
      "inputs": [],
      "name": "usdtToken",
      "outputs": [
        {
          "internalType": "contract IERC20",
          "name": "",
          "type": "address"
        }
      ],
      "stateMutability": "view",
      "type": "function"
    },
    {
      "inputs": [
        {
          "internalType": "uint256",
          "name": "_amount",
          "type": "uint256"
        }
      ],
      "name": "withdrawFunds",
      "outputs": [],
      "stateMutability": "nonpayable",
      "type": "function"
    }
  ],
  "bytecode": "0x60a060405234801562000010575f80fd5b5060405162001bf138038062001bf18339810160408190526200003391620001ac565b736499757b6673b04d65d0c93019be93abf8c4850262000057565b60405180910390fd5b62000062816200015d565b50600180556001600160801b038116620f424081108015906200008957506305f5e1008111155b620000ca5760405162461bcd60e51b815260206004820152601060248201526f466565206f7574206f662072616e676560801b60448201526064016200004e565b6001600160a01b038316620001225760405162461bcd60e51b815260206004820152601460248201527f496e76616c69642055534454206164647265737300000000000000000000000060448201526064016200004e565b506001600160a01b03909116608052600280546001600160801b0390921661010002610100600160881b0319909216919091179055620001fd565b5f80546001600160a01b038381166001600160a01b0319831681178455604051919092169283917f8be0079c531659141344cd1fd0a4f28419497f9722a3daafe3b4186f6b6457e09190a35050565b5f8060408385031215620001be575f80fd5b82516001600160a01b0381168114620001d5575f80fd5b60208401519092506001600160801b0381168114620001f2575f80fd5b809150509250929050565b6080516119b8620002395f395f8181610322015281816104d5015281816105ad0152818161099201528181610d8d0152610f6801526119b85ff3fe608060405234801561000f575f80fd5b5060043610610187575f3560e01c806398b1980a116100d9578063bc063e1a11610093578063e137ec401161006e578063e137ec4014610411578063edd0f7d914610429578063f2fde38b1461043c578063f70d93621461044f575f80fd5b8063bc063e1a14610395578063c59d4847146103a0578063e0a90b93146103ce575f80fd5b806398b1980a146102af578063a0a0d331146102d7578063a3954016146102f2578063a98ad46c1461031d578063b842038414610344578063b873759314610364575f80fd5b80636f9fb98a116101445780637eb606e81161011f5780637eb606e8146102495780638456cb59146102705780638da5cb5b14610278578063973c156b1461029c575f80fd5b80636f9fb98a14610221578063715018a61461023757806376c7a3c71461023f575f80fd5b8063155dd5ee1461018b5780632f79bccd146101a05780633687f24a146101b3578063388044b3146101c65780633f4ba83a1461020e5780635c975abb14610216575b5f80fd5b61019e610199366004611487565b610465565b005b61019e6101ae36600461149e565b610627565b61019e6101c1366004611513565b61088c565b6101f96101d4366004611540565b6001600160a01b03165f908152600460205260409020546001600160801b0316151590565b60405190151581526020015b60405180910390f35b61019e610969565b60025460ff166101f9565b61022961097b565b604051908152602001610205565b61019e610a08565b610229620f424081565b61025c610257366004611540565b610a19565b6040516102059897969594939291906115a9565b61019e610b10565b5f546001600160a01b03165b6040516001600160a01b039091168152602001610205565b61025c6102aa366004611540565b610b20565b6102846102bd366004611487565b60056020525f90815260409020546001600160a01b031681565b610284736499757b6673b04d65d0c93019be93abf8c4850281565b600354610305906001600160801b031681565b6040516001600160801b039091168152602001610205565b6102847f000000000000000000000000000000000000000000000000000000000000000081565b610357610352366004611540565b610caa565b6040516102059190611621565b610284610372366004611513565b6001600160801b03165f908152600560205260409020546001600160a01b031690565b6102296305f5e10081565b6103a8610d56565b604080516001600160801b03948516815293909216602084015290820152606001610205565b6103fe6103dc366004611540565b6001600160a01b03165f908152600460208190526040909120015461ffff1690565b60405161ffff9091168152602001610205565b6002546103059061010090046001600160801b031681565b61019e61043736600461149e565b610e09565b61019e61044a366004611540565b6111c8565b60025461010090046001600160801b0316610305565b61046d611202565b61047561122e565b5f81116104be5760405162461bcd60e51b81526020600482015260126024820152710416d6f756e74206d757374206265203e20360741b60448201526064015b60405180910390fd5b6040516370a0823160e01b81523060048201525f907f00000000000000000000000000000000000000000000000000000000000000006001600160a01b0316906370a0823190602401602060405180830381865afa158015610522573d5f803e3d5ffd5b505050506040513d601f19601f820116820180604052508101906105469190611633565b90508082111561058f5760405162461bcd60e51b8152602060048201526014602482015273496e73756666696369656e742062616c616e636560601b60448201526064016104b5565b6105d46105a35f546001600160a01b031690565b6001600160a01b037f0000000000000000000000000000000000000000000000000000000000000000169084611258565b5f54604080518481524260208201526001600160a01b03909216917ffbc3a599b784fe88772fc5abcc07223f64ca0b13acc341f4fb1e46bef0510eb4910160405180910390a25061062460018055565b50565b61062f61122e565b6106376112b7565b826106765760405162461bcd60e51b815260206004820152600f60248201526e08adae0e8f240c8c2e8c240d0c2e6d608b1b60448201526064016104b5565b806106b85760405162461bcd60e51b8152602060048201526012602482015271115b5c1d1e481b595d1859185d184815549360721b60448201526064016104b5565b6101f48111156106f95760405162461bcd60e51b815260206004820152600c60248201526b55524c20746f6f206c6f6e6760a01b60448201526064016104b5565b335f908152600460205260408120805490916001600160801b0390911690036107645760405162461bcd60e51b815260206004820152601b60248201527f4e6f20696e697469616c207375626d697373696f6e20666f756e64000000000060448201526064016104b5565b805464ffffffffff60a81b1916600160a81b4264ffffffffff160217815560028101849055600381016107988385836116e3565b5060048101805461ffff16905f6107ae836117b3565b82546101009290920a61ffff818102199093169183160217909155825460048401546040516001600160801b03909216935033927f500d875b55a56f86578523a24a90f846f8d7b11d6cb9d0e8b6b5df14d9e018a892610819928a928a928a929091169042906117fb565b60405180910390a3805460048201546040516001600160801b039092169133917f756d7ed5331267c23c7d904867916c081ff909ac76c091357cc8a8276dbe832591610875918991899189915f91429161ffff9091169061182c565b60405180910390a35061088760018055565b505050565b610894611202565b806001600160801b0316620f424081101580156108b557506305f5e1008111155b6108f45760405162461bcd60e51b815260206004820152601060248201526f466565206f7574206f662072616e676560801b60448201526064016104b5565b600280546001600160801b0384811661010081810270ffffffffffffffffffffffffffffffff001985161790945560408051949093049091168084526020840191909152917f528d9479e9f9889a87a3c30c7f7ba537e5e59c4c85a37733b16e57c62df61302910160405180910390a1505050565b610971611202565b6109796112db565b565b6040516370a0823160e01b81523060048201525f907f00000000000000000000000000000000000000000000000000000000000000006001600160a01b0316906370a0823190602401602060405180830381865afa1580156109df573d5f803e3d5ffd5b505050506040513d601f19601f82011682018060405250810190610a039190611633565b905090565b610a10611202565b6109795f61132d565b60046020525f908152604090208054600182015460028301546003840180546001600160801b03851695600160801b860464ffffffffff90811696600160a81b9004169466ffffffffffffff811694600160381b9091046001600160a01b0316939092610a859061165e565b80601f0160208091040260200160405190810160405280929190818152602001828054610ab19061165e565b8015610afc5780601f10610ad357610100808354040283529160200191610afc565b820191905f5260205f20905b815481529060010190602001808311610adf57829003601f168201915b5050506004909301549192505061ffff1688565b610b18611202565b61097961137c565b6001600160a01b038082165f90815260046020908152604080832081516101008101835281546001600160801b038116825264ffffffffff600160801b8204811695830195909552600160a81b900490931691830191909152600181015466ffffffffffffff8116606084810191909152600160381b9091049094166080830152600281015460a083015260038101805493948594859485948594859493859384939092909160c084019190610bd59061165e565b80601f0160208091040260200160405190810160405280929190818152602001828054610c019061165e565b8015610c4c5780601f10610c2357610100808354040283529160200191610c4c565b820191905f5260205f20905b815481529060010190602001808311610c2f57829003601f168201915b50505091835250506004919091015461ffff1660209182015281519082015160408301516060840151608085015160a086015160c087015160e090970151959f50939d50919b50995097509550909350915050919395975091939597565b6001600160a01b0381165f908152600460205260409020600301805460609190610cd39061165e565b80601f0160208091040260200160405190810160405280929190818152602001828054610cff9061165e565b8015610d4a5780601f10610d2157610100808354040283529160200191610d4a565b820191905f5260205f20905b815481529060010190602001808311610d2d57829003601f168201915b50505050509050919050565b6003546002546040516370a0823160e01b81523060048201525f92839283926001600160801b0392831692610100909204909116907f00000000000000000000000000000000000000000000000000000000000000006001600160a01b0316906370a0823190602401602060405180830381865afa158015610dda573d5f803e3d5ffd5b505050506040513d601f19601f82011682018060405250810190610dfe9190611633565b925092509250909192565b610e1161122e565b610e196112b7565b82610e585760405162461bcd60e51b815260206004820152600f60248201526e08adae0e8f240c8c2e8c240d0c2e6d608b1b60448201526064016104b5565b80610e9a5760405162461bcd60e51b8152602060048201526012602482015271115b5c1d1e481b595d1859185d184815549360721b60448201526064016104b5565b6101f4811115610edb5760405162461bcd60e51b815260206004820152600c60248201526b55524c20746f6f206c6f6e6760a01b60448201526064016104b5565b335f908152600460205260409020546001600160801b031615610f525760405162461bcd60e51b815260206004820152602960248201527f416c7265616479207375626d6974746564202d2075736520757064617465446f60448201526863756d656e7473282960b81b60648201526084016104b5565b60025461010090046001600160801b0316610f987f00000000000000000000000000000000000000000000000000000000000000006001600160a01b03163330846113b9565b600380545f91908290610fb3906001600160801b0316611867565b91906101000a8154816001600160801b0302191690836001600160801b0316021790559050604051806101000160405280826001600160801b031681526020014264ffffffffff1681526020014264ffffffffff1681526020018366ffffffffffffff168152602001336001600160a01b0316815260200186815260200185858080601f0160208091040260200160405190810160405280939291908181526020018383808284375f92018290525093855250505060209182018190523381526004825260409081902083518154938501519285015164ffffffffff908116600160a81b0264ffffffffff60a81b1991909416600160801b026001600160a81b03199095166001600160801b03909216919091179390931792909216178155606082015160018201805460808501516001600160a01b0316600160381b026001600160d81b031990911666ffffffffffffff9093169290921791909117905560a0820151600282015560c082015160038201906111309082611882565b5060e091909101516004909101805461ffff191661ffff9092169190911790556001600160801b0381165f818152600560205260408082208054336001600160a01b03199091168117909155905190917f756d7ed5331267c23c7d904867916c081ff909ac76c091357cc8a8276dbe8325916111b5918a918a918a918a91429161193e565b60405180910390a3505061088760018055565b6111d0611202565b6001600160a01b0381166111f957604051631e4fbdf760e01b81525f60048201526024016104b5565b6106248161132d565b5f546001600160a01b031633146109795760405163118cdaa760e01b81523360048201526024016104b5565b60026001540361125157604051633ee5aeb560e01b815260040160405180910390fd5b6002600155565b6040516001600160a01b0383811660248301526044820183905261088791859182169063a9059cbb906064015b604051602081830303815290604052915060e01b6020820180516001600160e01b0383818316178352505050506113f8565b60025460ff16156109795760405163d93c066560e01b815260040160405180910390fd5b6112e3611464565b6002805460ff191690557f5db9ee0a495bf2e6ff9c91a7834c1ba4fdd244a5e8aa4e537bd38aeae4b073aa335b6040516001600160a01b03909116815260200160405180910390a1565b5f80546001600160a01b038381166001600160a01b0319831681178455604051919092169283917f8be0079c531659141344cd1fd0a4f28419497f9722a3daafe3b4186f6b6457e09190a35050565b6113846112b7565b6002805460ff191660011790557f62e78cea01bee320cd4e420270b5ea74000d11b0c9f74754ebdbfc544b05a2586113103390565b6040516001600160a01b0384811660248301528381166044830152606482018390526113f29186918216906323b872dd90608401611285565b50505050565b5f8060205f8451602086015f885af180611417576040513d5f823e3d81fd5b50505f513d9150811561142e57806001141561143b565b6001600160a01b0384163b155b156113f257604051635274afe760e01b81526001600160a01b03851660048201526024016104b5565b60025460ff1661097957604051638dfc202b60e01b815260040160405180910390fd5b5f60208284031215611497575f80fd5b5035919050565b5f805f604084860312156114b0575f80fd5b83359250602084013567ffffffffffffffff808211156114ce575f80fd5b818601915086601f8301126114e1575f80fd5b8135818111156114ef575f80fd5b876020828501011115611500575f80fd5b6020830194508093505050509250925092565b5f60208284031215611523575f80fd5b81356001600160801b0381168114611539575f80fd5b9392505050565b5f60208284031215611550575f80fd5b81356001600160a01b0381168114611539575f80fd5b5f81518084525f5b8181101561158a5760208185018101518683018201520161156e565b505f602082860101526020601f19601f83011685010191505092915050565b6001600160801b038916815264ffffffffff88811660208301528716604082015266ffffffffffffff861660608201526001600160a01b038516608082015260a0810184905261010060c082018190525f9061160783820186611566565b91505061ffff831660e08301529998505050505050505050565b602081525f6115396020830184611566565b5f60208284031215611643575f80fd5b5051919050565b634e487b7160e01b5f52604160045260245ffd5b600181811c9082168061167257607f821691505b60208210810361169057634e487b7160e01b5f52602260045260245ffd5b50919050565b601f821115610887575f81815260208120601f850160051c810160208610156116bc5750805b601f850160051c820191505b818110156116db578281556001016116c8565b505050505050565b67ffffffffffffffff8311156116fb576116fb61164a565b61170f83611709835461165e565b83611696565b5f601f841160018114611740575f85156117295750838201355b5f19600387901b1c1916600186901b178355611798565b5f83815260209020601f19861690835b828110156117705786850135825560209485019460019092019101611750565b508682101561178c575f1960f88860031b161c19848701351681555b505060018560011b0183555b5050505050565b634e487b7160e01b5f52601160045260245ffd5b5f61ffff8083168181036117c9576117c961179f565b6001019392505050565b81835281816020850137505f828201602090810191909152601f909101601f19169091010190565b858152608060208201525f6118146080830186886117d3565b61ffff94909416604083015250606001529392505050565b86815260a060208201525f61184560a0830187896117d3565b604083019590955250606081019290925261ffff166080909101529392505050565b5f6001600160801b038083168181036117c9576117c961179f565b815167ffffffffffffffff81111561189c5761189c61164a565b6118b0816118aa845461165e565b84611696565b602080601f8311600181146118e3575f84156118cc5750858301515b5f19600386901b1c1916600185901b1785556116db565b5f85815260208120601f198616915b82811015611911578886015182559484019460019091019084016118f2565b508582101561192e57878501515f19600388901b60f8161c191681555b5050505050600190811b01905550565b86815260a060208201525f61195760a0830187896117d3565b6001600160801b0395909516604083015250606081019290925261ffff16608090910152939250505056fea2646970667358221220162b299d0f15f49b046e33e21c00f23e533a3579e330a9c3bbcdbfbda5ff3c2964736f6c63430008140033",
  "linkReferences": {},
  "deployedLinkReferences": {},
  "immutableReferences": {
    "1778": [
      {
        "length": 32,
        "start": 802
      },
      {
        "length": 32,
        "start": 1237
      },
      {
        "length": 32,
        "start": 1453
      },
      {
        "length": 32,
        "start": 2450
      },
      {
        "length": 32,
        "start": 3469
      },
      {
        "length": 32,
        "start": 3944
      }
    ]
  },
  "inputSourceName": "project/contracts/SimpleKYCWithUpdates.sol",
  "buildInfoId": "solc-0_8_20-cc2a892d44106abfefb82dcf4fb9e751aceee2f4"
}